{
  "address": "0x375854B2AeA7fa00bfF23a4Ca582D464c0d6d8fE",
  "abi": [
    {
      "inputs": [],
      "stateMutability": "nonpayable",
      "type": "constructor"
    },
    {
      "anonymous": false,
      "inputs": [
        {
          "indexed": false,
          "internalType": "bytes32",
          "name": "requestId",
          "type": "bytes32"
        },
        {
          "indexed": false,
          "internalType": "string",
          "name": "twitterHandle",
          "type": "string"
        },
        {
          "indexed": false,
          "internalType": "address",
          "name": "user",
          "type": "address"
        }
      ],
      "name": "AttemptToVerify",
      "type": "event"
    },
    {
      "anonymous": false,
      "inputs": [
        {
          "indexed": true,
          "internalType": "bytes32",
          "name": "id",
          "type": "bytes32"
        }
      ],
      "name": "ChainlinkCancelled",
      "type": "event"
    },
    {
      "anonymous": false,
      "inputs": [
        {
          "indexed": true,
          "internalType": "bytes32",
          "name": "id",
          "type": "bytes32"
        }
      ],
      "name": "ChainlinkFulfilled",
      "type": "event"
    },
    {
      "anonymous": false,
      "inputs": [
        {
          "indexed": true,
          "internalType": "bytes32",
          "name": "id",
          "type": "bytes32"
        }
      ],
      "name": "ChainlinkRequested",
      "type": "event"
    },
    {
      "anonymous": false,
      "inputs": [
        {
          "indexed": true,
          "internalType": "address",
          "name": "previousOwner",
          "type": "address"
        },
        {
          "indexed": true,
          "internalType": "address",
          "name": "newOwner",
          "type": "address"
        }
      ],
      "name": "OwnershipTransferred",
      "type": "event"
    },
    {
      "anonymous": false,
      "inputs": [
        {
          "indexed": false,
          "internalType": "bytes32",
          "name": "requestId",
          "type": "bytes32"
        }
      ],
      "name": "VerificationFailed",
      "type": "event"
    },
    {
      "anonymous": false,
      "inputs": [
        {
          "indexed": false,
          "internalType": "bytes32",
          "name": "requestId",
          "type": "bytes32"
        },
        {
          "indexed": false,
          "internalType": "string",
          "name": "twitterHandle",
          "type": "string"
        },
        {
          "indexed": false,
          "internalType": "address",
          "name": "user",
          "type": "address"
        }
      ],
      "name": "VerificationSuccess",
      "type": "event"
    },
    {
      "inputs": [],
      "name": "LINK_CONTRACT_ADDRESS",
      "outputs": [
        {
          "internalType": "address",
          "name": "",
          "type": "address"
        }
      ],
      "stateMutability": "view",
      "type": "function"
    },
    {
      "inputs": [
        {
          "internalType": "address",
          "name": "_address",
          "type": "address"
        }
      ],
      "name": "createTestUser",
      "outputs": [],
      "stateMutability": "nonpayable",
      "type": "function"
    },
    {
      "inputs": [
        {
          "internalType": "bytes32",
          "name": "_requestId",
          "type": "bytes32"
        },
        {
          "internalType": "uint256",
          "name": "_address",
          "type": "uint256"
        }
      ],
      "name": "fulfill_verify",
      "outputs": [],
      "stateMutability": "nonpayable",
      "type": "function"
    },
    {
      "inputs": [
        {
          "internalType": "address",
          "name": "_address",
          "type": "address"
        }
      ],
      "name": "getTwitterHandle",
      "outputs": [
        {
          "internalType": "string",
          "name": "",
          "type": "string"
        }
      ],
      "stateMutability": "view",
      "type": "function"
    },
    {
      "inputs": [
        {
          "internalType": "address",
          "name": "_address",
          "type": "address"
        }
      ],
      "name": "getVerification",
      "outputs": [
        {
          "internalType": "bool",
          "name": "",
          "type": "bool"
        }
      ],
      "stateMutability": "view",
      "type": "function"
    },
    {
      "inputs": [],
      "name": "isOwner",
      "outputs": [
        {
          "internalType": "bool",
          "name": "",
          "type": "bool"
        }
      ],
      "stateMutability": "view",
      "type": "function"
    },
    {
      "inputs": [],
      "name": "owner",
      "outputs": [
        {
          "internalType": "address",
          "name": "",
          "type": "address"
        }
      ],
      "stateMutability": "view",
      "type": "function"
    },
    {
      "inputs": [
        {
          "internalType": "bytes32",
          "name": "_jobId",
          "type": "bytes32"
        }
      ],
      "name": "setJobId",
      "outputs": [],
      "stateMutability": "nonpayable",
      "type": "function"
    },
    {
      "inputs": [
        {
          "internalType": "address",
          "name": "newOwner",
          "type": "address"
        }
      ],
      "name": "transferOwnership",
      "outputs": [],
      "stateMutability": "nonpayable",
      "type": "function"
    },
    {
      "inputs": [
        {
          "internalType": "address",
          "name": "",
          "type": "address"
        }
      ],
      "name": "verificationMap",
      "outputs": [
        {
          "internalType": "bytes32",
          "name": "requestId",
          "type": "bytes32"
        },
        {
          "internalType": "bool",
          "name": "verified",
          "type": "bool"
        },
        {
          "internalType": "string",
          "name": "twitterHandle",
          "type": "string"
        }
      ],
      "stateMutability": "view",
      "type": "function"
    },
    {
      "inputs": [
        {
          "internalType": "string",
          "name": "_userHandle",
          "type": "string"
        }
      ],
      "name": "verifyUser",
      "outputs": [
        {
          "internalType": "bytes32",
          "name": "",
          "type": "bytes32"
        }
      ],
      "stateMutability": "nonpayable",
      "type": "function"
    }
  ],
  "transactionHash": "0xbd7d57ea5852737c82013a403c2d15601e758aaaaad9b2623ad4de48f456618b",
  "args": [],
  "solcInputHash": "1e152a46050221c9e253e1297e385516",
  "bytecode": "0x60806040526001600455600b80546001600160a01b031990811673326c977e6efc84e512bb9c30f76e30c160ed06fb1791829055600c80549091166001600160a01b039290921691909117905534801561005857600080fd5b50600680546001600160a01b0319163317908190556040516001600160a01b0391909116906000907f8be0079c531659141344cd1fd0a4f28419497f9722a3daafe3b4186f6b6457e0908290a36100cb73326c977e6efc84e512bb9c30f76e30c160ed06fb6001600160e01b0361012616565b600780546001600160a01b031916730e70fe151fa8a1477d4e2a42028db8a231d2c8271790557f396464616533613562643635343764353930656235636361656162313432396560095567016345785d8a0000600855610148565b600280546001600160a01b0319166001600160a01b0392909216919091179055565b61159b806101576000396000f3fe608060405234801561001057600080fd5b50600436106100a95760003560e01c8063a116519611610071578063a116519614610156578063d28834fa14610206578063e600c8171461022c578063ea6fe47e146102e4578063f15ad264146102ec578063f2fde38b14610387576100a9565b8063508954f8146100ae5780637fc9592d146100cd5780638da5cb5b146101075780638f32d59b1461012b5780639d9ecb2214610133575b600080fd5b6100cb600480360360208110156100c457600080fd5b50356103ad565b005b6100f3600480360360208110156100e357600080fd5b50356001600160a01b031661040b565b604080519115158252519081900360200190f35b61010f61042c565b604080516001600160a01b039092168252519081900360200190f35b6100f361043c565b6100cb6004803603604081101561014957600080fd5b508035906020013561044d565b61017c6004803603602081101561016c57600080fd5b50356001600160a01b0316610676565b604051808481526020018315151515815260200180602001828103825283818151815260200191508051906020019080838360005b838110156101c95781810151838201526020016101b1565b50505050905090810190601f1680156101f65780820380516001836020036101000a031916815260200191505b5094505050505060405180910390f35b6100cb6004803603602081101561021c57600080fd5b50356001600160a01b0316610726565b6102d26004803603602081101561024257600080fd5b81019060208101813564010000000081111561025d57600080fd5b82018360208201111561026f57600080fd5b8035906020019184600183028401116401000000008311171561029157600080fd5b91908080601f0160208091040260200160405190810160405280939291908181526020018383808284376000920191909152509295506108d9945050505050565b60408051918252519081900360200190f35b61010f610b13565b6103126004803603602081101561030257600080fd5b50356001600160a01b0316610b22565b6040805160208082528351818301528351919283929083019185019080838360005b8381101561034c578181015183820152602001610334565b50505050905090810190601f1680156103795780820380516001836020036101000a031916815260200191505b509250505060405180910390f35b6100cb6004803603602081101561039d57600080fd5b50356001600160a01b0316610bd3565b6103b561043c565b610406576040805162461bcd60e51b815260206004820181905260248201527f4f776e61626c653a2063616c6c6572206973206e6f7420746865206f776e6572604482015290519081900360640190fd5b600955565b6001600160a01b03166000908152600a602052604090206001015460ff1690565b6006546001600160a01b03165b90565b6006546001600160a01b0316331490565b60008281526005602052604090205482906001600160a01b031633146104a45760405162461bcd60e51b815260040180806020018281038252602881526020018061153e6028913960400191505060405180910390fd5b60008181526005602052604080822080546001600160a01b03191690555182917f7cc135e0cebb02c3480ae5d74d377283180a2601f8f644edf7987b009316c63a91a2816001600160a01b038116610560576040805185815290517f0da34dfb823096ac3cc7b6d0c821cbbe9d487295d0b33fd2efef0f064e76722d9181900360200190a160405162461bcd60e51b81526004018080602001828103825260238152602001806114d26023913960400191505060405180910390fd5b6001600160a01b0381166000908152600a6020526040902054841415610670576001600160a01b0381166000818152600a60209081526040918290206001818101805460ff191682179055835189815293840194909452606091830182815260029182018054600019968116156101000296909601909516919091049183018290527fa8e5bd8c6780632eb1d938a1da075f9d674e6c36bdb7d4da943a828216ef1fcc938893909286929060808301908590801561065f5780601f106106345761010080835404028352916020019161065f565b820191906000526020600020905b81548152906001019060200180831161064257829003601f168201915b505094505050505060405180910390a15b50505050565b600a6020908152600091825260409182902080546001808301546002808501805488516101009582161595909502600019011691909104601f8101879004870284018701909752868352929560ff9091169491929183018282801561071c5780601f106106f15761010080835404028352916020019161071c565b820191906000526020600020905b8154815290600101906020018083116106ff57829003601f168201915b5050505050905083565b61072e61043c565b61077f576040805162461bcd60e51b815260206004820181905260248201527f4f776e61626c653a2063616c6c6572206973206e6f7420746865206f776e6572604482015290519081900360640190fd5b6107876113cb565b506040805160608101825260008082526001602080840182815285518087018752600f81526e1515152a22a9aa2faaa9a2a915151560891b818401528587019081526001600160a01b0388168552600a835295909320845181559251918301805460ff191692151592909217909155925180519293849361080e92600285019201906113ea565b509050507fa8e5bd8c6780632eb1d938a1da075f9d674e6c36bdb7d4da943a828216ef1fcc81600001518260400151846040518084815260200180602001836001600160a01b03166001600160a01b03168152602001828103825284818151815260200191508051906020019080838360005b83811015610899578181015183820152602001610881565b50505050905090810190601f1680156108c65780820380516001836020036101000a031916815260200191505b5094505050505060405180910390a15050565b600c54600854604080516323b872dd60e01b81523360048201523060248201526044810192909252516000926001600160a01b0316916323b872dd91606480830192602092919082900301818787803b15801561093557600080fd5b505af1158015610949573d6000803e3d6000fd5b505050506040513d602081101561095f57600080fd5b50516109a8576040805162461bcd60e51b81526020600482015260136024820152721d1c985b9cd9995c919c9bdb4819985a5b1959606a1b604482015290519081900360640190fd5b336000908152600a6020908152604090912060018101805460ff1916905583516109da926002909201918501906113ea565b506109e3611468565b6009546109f89030634ecf659160e11b610c38565b60408051808201909152600681526568616e646c6560d01b6020820152909150610a2a9082908563ffffffff610c6316565b600754600854600091610a4a916001600160a01b03909116908490610c92565b336000818152600a60209081526040808320859055805185815290810184905260608183018181528a519183019190915289519596507fe42710b4946bb3518bff7398543507ccab8d67bfdc4eec88ef5a6955c90c060d9587958b9590946080850192908701918190849084905b83811015610ad0578181015183820152602001610ab8565b50505050905090810190601f168015610afd5780820380516001836020036101000a031916815260200191505b5094505050505060405180910390a19392505050565b600b546001600160a01b031681565b6001600160a01b0381166000908152600a60209081526040918290206002908101805484516001821615610100026000190190911692909204601f81018490048402830184019094528382526060939192909190830182828015610bc75780601f10610b9c57610100808354040283529160200191610bc7565b820191906000526020600020905b815481529060010190602001808311610baa57829003601f168201915b50505050509050919050565b610bdb61043c565b610c2c576040805162461bcd60e51b815260206004820181905260248201527f4f776e61626c653a2063616c6c6572206973206e6f7420746865206f776e6572604482015290519081900360640190fd5b610c3581610e69565b50565b610c40611468565b610c48611468565b610c5a8186868663ffffffff610f0a16565b95945050505050565b6080830151610c78908363ffffffff610f4716565b6080830151610c8d908263ffffffff610f4716565b505050565b6004546040805130606090811b60208084019190915260348084018690528451808503909101815260549093018452825192810192909220908601939093526000838152600590915281812080546001600160a01b0319166001600160a01b038816179055905182917fb5e6e01e79f91267dc17b4e6314d5d4d03593d2ceee0fbb452b750bd70ea5af991a26002546001600160a01b0316634000aea08584610d3a87610f64565b6040518463ffffffff1660e01b815260040180846001600160a01b03166001600160a01b0316815260200183815260200180602001828103825283818151815260200191508051906020019080838360005b83811015610da4578181015183820152602001610d8c565b50505050905090810190601f168015610dd15780820380516001836020036101000a031916815260200191505b50945050505050602060405180830381600087803b158015610df257600080fd5b505af1158015610e06573d6000803e3d6000fd5b505050506040513d6020811015610e1c57600080fd5b5051610e595760405162461bcd60e51b815260040180806020018281038252602381526020018061151b6023913960400191505060405180910390fd5b6004805460010190559392505050565b6001600160a01b038116610eae5760405162461bcd60e51b81526004018080602001828103825260268152602001806114f56026913960400191505060405180910390fd5b6006546040516001600160a01b038084169216907f8be0079c531659141344cd1fd0a4f28419497f9722a3daafe3b4186f6b6457e090600090a3600680546001600160a01b0319166001600160a01b0392909216919091179055565b610f12611468565b610f2285608001516101006110a4565b50509183526001600160a01b031660208301526001600160e01b031916604082015290565b610f5482600383516110e4565b610c8d828263ffffffff6111ee16565b6060634042994660e01b6000808460000151856020015186604001518760600151600189608001516000015160405160240180896001600160a01b03166001600160a01b03168152602001888152602001878152602001866001600160a01b03166001600160a01b03168152602001856001600160e01b0319166001600160e01b031916815260200184815260200183815260200180602001828103825283818151815260200191508051906020019080838360005b8381101561103257818101518382015260200161101a565b50505050905090810190601f16801561105f5780820380516001836020036101000a031916815260200191505b5060408051601f198184030181529190526020810180516001600160e01b03166001600160e01b0319909d169c909c17909b5250989950505050505050505050919050565b6110ac61149d565b60208206156110c15760208206602003820191505b506020808301829052604080518085526000815283019091019052815b92915050565b6017811161110b576111058360e0600585901b16831763ffffffff61120f16565b50610c8d565b60ff81116111415761112e836018611fe0600586901b161763ffffffff61120f16565b506111058382600163ffffffff61122716565b61ffff811161117857611165836019611fe0600586901b161763ffffffff61120f16565b506111058382600263ffffffff61122716565b63ffffffff81116111b15761119e83601a611fe0600586901b161763ffffffff61120f16565b506111058382600463ffffffff61122716565b67ffffffffffffffff8111610c8d576111db83601b611fe0600586901b161763ffffffff61120f16565b506106708382600863ffffffff61122716565b6111f661149d565b61120883846000015151848551611248565b9392505050565b61121761149d565b61120883846000015151846112f4565b61122f61149d565b61124084856000015151858561133f565b949350505050565b61125061149d565b825182111561125e57600080fd5b846020015182850111156112885761128885611280876020015187860161139d565b6002026113b4565b6000808651805187602083010193508088870111156112a75787860182525b505050602084015b602084106112ce5780518252601f1990930192602091820191016112af565b51815160001960208690036101000a019081169019919091161790525083949350505050565b6112fc61149d565b83602001518310611318576113188485602001516002026113b4565b835180516020858301018481535080851415611335576001810182525b5093949350505050565b61134761149d565b8460200151848301111561136457611364858584016002026113b4565b60006001836101000a0390508551838682010185831982511617815250805184870111156113925783860181525b509495945050505050565b6000818311156113ae5750816110de565b50919050565b81516113c083836110a4565b5061067083826111ee565b6040805160608082018352600080835260208301529181019190915290565b828054600181600116156101000203166002900490600052602060002090601f016020900481019282601f1061142b57805160ff1916838001178555611458565b82800160010185558215611458579182015b8281111561145857825182559160200191906001019061143d565b506114649291506114b7565b5090565b6040805160a08101825260008082526020820181905291810182905260608101919091526080810161149861149d565b905290565b604051806040016040528060608152602001600081525090565b61043991905b8082111561146457600081556001016114bd56fe4572726f72206f6363757272656420647572696e6720766572696669636174696f6e214f776e61626c653a206e6577206f776e657220697320746865207a65726f2061646472657373756e61626c6520746f207472616e73666572416e6443616c6c20746f206f7261636c65536f75726365206d75737420626520746865206f7261636c65206f66207468652072657175657374a26469706673582212202e43b1d4d766377d22144ec3a4bbc4a7a280ffe8d24c2e03ba53f80cf988d3bb64736f6c63430006060033",
  "devdoc": {
    "methods": {
      "createTestUser(address)": {
        "details": "allows owner to create test users for contract testing. Test users will always have the twitter handle ***TEST_USER*** so that they are easily recognizable as a test user*"
      },
      "fulfill_verify(bytes32,uint256)": {
        "details": "Called by the oracle once the verification job is complete*"
      },
      "isOwner()": {
        "details": "Returns true if the caller is the current owner."
      },
      "owner()": {
        "details": "Returns the address of the current owner."
      },
      "transferOwnership(address)": {
        "details": "Transfers ownership of the contract to a new account (`newOwner`). Can only be called by the current owner."
      },
      "verifyUser(string)": {
        "details": "submit a verification job to the oracle. Users latest tweet must contain the address they called this function with!!!*"
      }
    }
  },
  "userdoc": {
    "methods": {}
  },
  "storageLayout": {
    "storage": [
      {
        "astId": 303,
        "contract": "contracts/twitterVerify.sol:twitterverify",
        "label": "ens",
        "offset": 0,
        "slot": "0",
        "type": "t_contract(ENSInterface)1001"
      },
      {
        "astId": 305,
        "contract": "contracts/twitterVerify.sol:twitterverify",
        "label": "ensNode",
        "offset": 0,
        "slot": "1",
        "type": "t_bytes32"
      },
      {
        "astId": 307,
        "contract": "contracts/twitterVerify.sol:twitterverify",
        "label": "link",
        "offset": 0,
        "slot": "2",
        "type": "t_contract(LinkTokenInterface)1096"
      },
      {
        "astId": 309,
        "contract": "contracts/twitterVerify.sol:twitterverify",
        "label": "oracle",
        "offset": 0,
        "slot": "3",
        "type": "t_contract(ChainlinkRequestInterface)921"
      },
      {
        "astId": 312,
        "contract": "contracts/twitterVerify.sol:twitterverify",
        "label": "requestCount",
        "offset": 0,
        "slot": "4",
        "type": "t_uint256"
      },
      {
        "astId": 316,
        "contract": "contracts/twitterVerify.sol:twitterverify",
        "label": "pendingRequests",
        "offset": 0,
        "slot": "5",
        "type": "t_mapping(t_bytes32,t_address)"
      },
      {
        "astId": 2020,
        "contract": "contracts/twitterVerify.sol:twitterverify",
        "label": "_owner",
        "offset": 0,
        "slot": "6",
        "type": "t_address"
      },
      {
        "astId": 2477,
        "contract": "contracts/twitterVerify.sol:twitterverify",
        "label": "oracle",
        "offset": 0,
        "slot": "7",
        "type": "t_address"
      },
      {
        "astId": 2479,
        "contract": "contracts/twitterVerify.sol:twitterverify",
        "label": "fee",
        "offset": 0,
        "slot": "8",
        "type": "t_uint256"
      },
      {
        "astId": 2481,
        "contract": "contracts/twitterVerify.sol:twitterverify",
        "label": "verifyUserJobId",
        "offset": 0,
        "slot": "9",
        "type": "t_bytes32"
      },
      {
        "astId": 2492,
        "contract": "contracts/twitterVerify.sol:twitterverify",
        "label": "verificationMap",
        "offset": 0,
        "slot": "10",
        "type": "t_mapping(t_address,t_struct(userVerification)2488_storage)"
      },
      {
        "astId": 2518,
        "contract": "contracts/twitterVerify.sol:twitterverify",
        "label": "LINK_CONTRACT_ADDRESS",
        "offset": 0,
        "slot": "11",
        "type": "t_address"
      },
      {
        "astId": 2523,
        "contract": "contracts/twitterVerify.sol:twitterverify",
        "label": "link",
        "offset": 0,
        "slot": "12",
        "type": "t_contract(linkToken)2471"
      }
    ],
    "types": {
      "t_address": {
        "encoding": "inplace",
        "label": "address",
        "numberOfBytes": "20"
      },
      "t_bool": {
        "encoding": "inplace",
        "label": "bool",
        "numberOfBytes": "1"
      },
      "t_bytes32": {
        "encoding": "inplace",
        "label": "bytes32",
        "numberOfBytes": "32"
      },
      "t_contract(ChainlinkRequestInterface)921": {
        "encoding": "inplace",
        "label": "contract ChainlinkRequestInterface",
        "numberOfBytes": "20"
      },
      "t_contract(ENSInterface)1001": {
        "encoding": "inplace",
        "label": "contract ENSInterface",
        "numberOfBytes": "20"
      },
      "t_contract(LinkTokenInterface)1096": {
        "encoding": "inplace",
        "label": "contract LinkTokenInterface",
        "numberOfBytes": "20"
      },
      "t_contract(linkToken)2471": {
        "encoding": "inplace",
        "label": "contract linkToken",
        "numberOfBytes": "20"
      },
      "t_mapping(t_address,t_struct(userVerification)2488_storage)": {
        "encoding": "mapping",
        "key": "t_address",
        "label": "mapping(address => struct twitterverify.userVerification)",
        "numberOfBytes": "32",
        "value": "t_struct(userVerification)2488_storage"
      },
      "t_mapping(t_bytes32,t_address)": {
        "encoding": "mapping",
        "key": "t_bytes32",
        "label": "mapping(bytes32 => address)",
        "numberOfBytes": "32",
        "value": "t_address"
      },
      "t_string_storage": {
        "encoding": "bytes",
        "label": "string",
        "numberOfBytes": "32"
      },
      "t_struct(userVerification)2488_storage": {
        "encoding": "inplace",
        "label": "struct twitterverify.userVerification",
        "members": [
          {
            "astId": 2483,
            "contract": "contracts/twitterVerify.sol:twitterverify",
            "label": "requestId",
            "offset": 0,
            "slot": "0",
            "type": "t_bytes32"
          },
          {
            "astId": 2485,
            "contract": "contracts/twitterVerify.sol:twitterverify",
            "label": "verified",
            "offset": 0,
            "slot": "1",
            "type": "t_bool"
          },
          {
            "astId": 2487,
            "contract": "contracts/twitterVerify.sol:twitterverify",
            "label": "twitterHandle",
            "offset": 0,
            "slot": "2",
            "type": "t_string_storage"
          }
        ],
        "numberOfBytes": "96"
      },
      "t_uint256": {
        "encoding": "inplace",
        "label": "uint256",
        "numberOfBytes": "32"
      }
    }
  }
}