{
  "address": "0xB45C57ccd192cbe3248b59fFE0D70962C87533Af",
  "abi": [
    {
      "inputs": [
        {
          "internalType": "address",
          "name": "_twitterVerifyAddress",
          "type": "address"
        },
        {
          "internalType": "address",
          "name": "linkTokenAddress",
          "type": "address"
        },
        {
          "internalType": "address",
          "name": "rngAddress",
          "type": "address"
        }
      ],
      "stateMutability": "nonpayable",
      "type": "constructor"
    },
    {
      "anonymous": false,
      "inputs": [
        {
          "indexed": true,
          "internalType": "address",
          "name": "previousOwner",
          "type": "address"
        },
        {
          "indexed": true,
          "internalType": "address",
          "name": "newOwner",
          "type": "address"
        }
      ],
      "name": "OwnershipTransferred",
      "type": "event"
    },
    {
      "anonymous": false,
      "inputs": [
        {
          "indexed": false,
          "internalType": "address",
          "name": "Pool",
          "type": "address"
        },
        {
          "indexed": false,
          "internalType": "address",
          "name": "PoolOwner",
          "type": "address"
        },
        {
          "indexed": false,
          "internalType": "uint256",
          "name": "SubmissionEndTime",
          "type": "uint256"
        },
        {
          "indexed": false,
          "internalType": "uint256",
          "name": "FanVotingEndTime",
          "type": "uint256"
        },
        {
          "indexed": false,
          "internalType": "uint256",
          "name": "BrandVotingEndTime",
          "type": "uint256"
        },
        {
          "indexed": false,
          "internalType": "uint256",
          "name": "CampaignEndtime",
          "type": "uint256"
        },
        {
          "indexed": false,
          "internalType": "uint256",
          "name": "PoolId",
          "type": "uint256"
        }
      ],
      "name": "PoolCreated",
      "type": "event"
    },
    {
      "inputs": [],
      "name": "LINK_CONTRACT_ADDRESS",
      "outputs": [
        {
          "internalType": "address",
          "name": "",
          "type": "address"
        }
      ],
      "stateMutability": "view",
      "type": "function"
    },
    {
      "inputs": [],
      "name": "TWITTER_VERIFY_ADDRESS",
      "outputs": [
        {
          "internalType": "address",
          "name": "",
          "type": "address"
        }
      ],
      "stateMutability": "view",
      "type": "function"
    },
    {
      "inputs": [],
      "name": "allowPoolCreation",
      "outputs": [
        {
          "internalType": "bool",
          "name": "",
          "type": "bool"
        }
      ],
      "stateMutability": "view",
      "type": "function"
    },
    {
      "inputs": [
        {
          "internalType": "bool",
          "name": "_bool",
          "type": "bool"
        }
      ],
      "name": "changePoolCreationBool",
      "outputs": [],
      "stateMutability": "nonpayable",
      "type": "function"
    },
    {
      "inputs": [
        {
          "internalType": "string",
          "name": "_poolName",
          "type": "string"
        },
        {
          "internalType": "uint256",
          "name": "_capital",
          "type": "uint256"
        },
        {
          "internalType": "address",
          "name": "_capitalAddress",
          "type": "address"
        },
        {
          "internalType": "address",
          "name": "_nftAddress",
          "type": "address"
        },
        {
          "internalType": "uint256",
          "name": "_campaignLength",
          "type": "uint256"
        },
        {
          "internalType": "uint256",
          "name": "_votingLength",
          "type": "uint256"
        },
        {
          "internalType": "uint256",
          "name": "_decisionLength",
          "type": "uint256"
        },
        {
          "internalType": "uint256",
          "name": "_submissionLength",
          "type": "uint256"
        }
      ],
      "name": "createPool",
      "outputs": [],
      "stateMutability": "nonpayable",
      "type": "function"
    },
    {
      "inputs": [
        {
          "internalType": "uint256",
          "name": "_index",
          "type": "uint256"
        }
      ],
      "name": "getPoolAddress",
      "outputs": [
        {
          "internalType": "address",
          "name": "",
          "type": "address"
        }
      ],
      "stateMutability": "view",
      "type": "function"
    },
    {
      "inputs": [],
      "name": "getPoolCount",
      "outputs": [
        {
          "internalType": "uint256",
          "name": "",
          "type": "uint256"
        }
      ],
      "stateMutability": "view",
      "type": "function"
    },
    {
      "inputs": [],
      "name": "owner",
      "outputs": [
        {
          "internalType": "address",
          "name": "",
          "type": "address"
        }
      ],
      "stateMutability": "view",
      "type": "function"
    },
    {
      "inputs": [],
      "name": "poolCount",
      "outputs": [
        {
          "internalType": "uint256",
          "name": "",
          "type": "uint256"
        }
      ],
      "stateMutability": "view",
      "type": "function"
    },
    {
      "inputs": [
        {
          "internalType": "uint256",
          "name": "",
          "type": "uint256"
        }
      ],
      "name": "poolList",
      "outputs": [
        {
          "internalType": "address",
          "name": "",
          "type": "address"
        }
      ],
      "stateMutability": "view",
      "type": "function"
    },
    {
      "inputs": [],
      "name": "renounceOwnership",
      "outputs": [],
      "stateMutability": "nonpayable",
      "type": "function"
    },
    {
      "inputs": [
        {
          "internalType": "address",
          "name": "_address",
          "type": "address"
        }
      ],
      "name": "setTwitterVerifyAddress",
      "outputs": [],
      "stateMutability": "nonpayable",
      "type": "function"
    },
    {
      "inputs": [
        {
          "internalType": "address",
          "name": "newOwner",
          "type": "address"
        }
      ],
      "name": "transferOwnership",
      "outputs": [],
      "stateMutability": "nonpayable",
      "type": "function"
    }
  ],
  "transactionHash": "0xa0bf4d493aaeb2a57cad05071f8cd8727a23103df90333c5c781cc29ab09d59f",
  "args": [
    "0x0ed9438215467CEbEa9D8A0D394E913096f6e9BF",
    "0x8825d49dea3a8fc5643217f61217fe5d0564e616",
    "0xD17C79631eAE76270ea2ACe8d107C258dfC77397"
  ],
  "solcInputHash": "591f6a05ebf0220bc1b8e11b0508e3f4",
  "bytecode": "0x608060405234801561001057600080fd5b5060405161395138038061395183398101604081905261002f91610100565b61003833610094565b600380546001600160a01b039485166001600160a01b0319918216811790925560048054821690921790915560058054928516928216929092179091556007805492909316918116821790925560068054909216179055610142565b600080546001600160a01b038381166001600160a01b0319831681178455604051919092169283917f8be0079c531659141344cd1fd0a4f28419497f9722a3daafe3b4186f6b6457e09190a35050565b80516001600160a01b03811681146100fb57600080fd5b919050565b600080600060608486031215610114578283fd5b61011d846100e4565b925061012b602085016100e4565b9150610139604085016100e4565b90509250925092565b613800806101516000396000f3fe60806040523480156200001157600080fd5b5060043610620000df5760003560e01c80638eec5d701162000097578063ea6fe47e116200006e578063ea6fe47e14620001e3578063f2fde38b14620001f7578063f525cb68146200020e578063f8b0e45e146200021857600080fd5b80638eec5d7014620001a5578063d1954fca14620001b8578063de58ba2014620001cf57600080fd5b8062a5ae2114620000e45780632a48235b146200012d57806364c3c3431462000159578063715018a614620001725780637bc2ae7c146200017c5780638da5cb5b1462000193575b600080fd5b62000110620000f536600462000a7a565b6000908152600160205260409020546001600160a01b031690565b6040516001600160a01b0390911681526020015b60405180910390f35b620001106200013e36600462000a7a565b6001602052600090815260409020546001600160a01b031681565b620001706200016a366004620008ea565b6200023e565b005b6200017062000292565b620001706200018d366004620009aa565b620002cd565b6000546001600160a01b031662000110565b6002545b60405190815260200162000124565b62000170620001c9366004620008c6565b62000750565b60035462000110906001600160a01b031681565b60075462000110906001600160a01b031681565b6200017062000208366004620008c6565b620007a9565b620001a960025481565b6000546200022d90600160a01b900460ff1681565b604051901515815260200162000124565b6000546001600160a01b03163314620002745760405162461bcd60e51b81526004016200026b9062000b42565b60405180910390fd5b60008054911515600160a01b0260ff60a01b19909216919091179055565b6000546001600160a01b03163314620002bf5760405162461bcd60e51b81526004016200026b9062000b42565b620002cb60006200084b565b565b600054600160a01b900460ff16620003385760405162461bcd60e51b815260206004820152602760248201527f506f6f6c206372656174696f6e2069732063757272656e746c79206e6f7420616044820152666c6c6f7765642160c81b60648201526084016200026b565b60048054604051637fc9592d60e01b815233928101929092526001600160a01b031690637fc9592d90602401602060405180830381600087803b1580156200037f57600080fd5b505af115801562000394573d6000803e3d6000fd5b505050506040513d601f19601f82011682018060405250810190620003ba919062000909565b6200041d5760405162461bcd60e51b815260206004820152602c60248201527f43616c6c65722061646472657373206973206e6f74207665726966696564207760448201526b69746820547769747465722160a01b60648201526084016200026b565b6006546005546040516323b872dd60e01b81523360048201526001600160a01b03918216602482015267016345785d8a000060448201529116906323b872dd90606401602060405180830381600087803b1580156200047b57600080fd5b505af115801562000490573d6000803e3d6000fd5b505050506040513d601f19601f82011682018060405250810190620004b6919062000909565b620005045760405162461bcd60e51b815260206004820152601960248201527f4c696e6b207472616e7366657246726f6d206661696c6564210000000000000060448201526064016200026b565b60048054604051633c56b49960e21b815233928101929092526000916001600160a01b039091169063f15ad26490602401600060405180830381600087803b1580156200055057600080fd5b505af115801562000565573d6000803e3d6000fd5b505050506040513d6000823e601f3d908101601f191682016040526200058f919081019062000928565b9050600089828a8a8a33600560009054906101000a90046001600160a01b03168c8c8c8c604051620005c1906200089b565b620005d79b9a9998979695949392919062000ac1565b604051809103906000f080158015620005f4573d6000803e3d6000fd5b50905060008080804262000609888262000bd6565b9450620006178a8662000bd6565b935062000625898562000bd6565b9250620006338b8262000bd6565b600254604080516001600160a01b038a168152336020820152908101889052606081018790526080810186905260a0810183905260c08101919091529092507fd7e50dd3c6c7b206a2335aff0d56d020203676dbf26d1c4a0a026d43c6ae342e9060e00160405180910390a160028054600090815260016020526040812080546001600160a01b0319166001600160a01b038a1617905581549190620006d98362000c24565b909155505060055460405163e43252d760e01b81526001600160a01b0388811660048301529091169063e43252d790602401600060405180830381600087803b1580156200072657600080fd5b505af11580156200073b573d6000803e3d6000fd5b50505050505050505050505050505050505050565b6000546001600160a01b031633146200077d5760405162461bcd60e51b81526004016200026b9062000b42565b600380546001600160a01b039092166001600160a01b0319928316811790915560048054909216179055565b6000546001600160a01b03163314620007d65760405162461bcd60e51b81526004016200026b9062000b42565b6001600160a01b0381166200083d5760405162461bcd60e51b815260206004820152602660248201527f4f776e61626c653a206e6577206f776e657220697320746865207a65726f206160448201526564647265737360d01b60648201526084016200026b565b62000848816200084b565b50565b600080546001600160a01b038381166001600160a01b0319831681178455604051919092169283917f8be0079c531659141344cd1fd0a4f28419497f9722a3daafe3b4186f6b6457e09190a35050565b612b4d8062000c7e83390190565b80356001600160a01b0381168114620008c157600080fd5b919050565b600060208284031215620008d8578081fd5b620008e382620008a9565b9392505050565b600060208284031215620008fc578081fd5b8135620008e38162000c6e565b6000602082840312156200091b578081fd5b8151620008e38162000c6e565b6000602082840312156200093a578081fd5b815167ffffffffffffffff81111562000951578182fd5b8201601f8101841362000962578182fd5b805162000979620009738262000bab565b62000b77565b8181528560208385010111156200098e578384fd5b620009a182602083016020860162000bf1565b95945050505050565b600080600080600080600080610100898b031215620009c7578384fd5b883567ffffffffffffffff811115620009de578485fd5b8901601f81018b13620009ef578485fd5b803562000a00620009738262000bab565b8181528c602083850101111562000a15578687fd5b816020840160208301378660208383010152809a505050506020890135965062000a4260408a01620008a9565b955062000a5260608a01620008a9565b979a969950949760808101359660a0820135965060c0820135955060e0909101359350915050565b60006020828403121562000a8c578081fd5b5035919050565b6000815180845262000aad81602086016020860162000bf1565b601f01601f19169290920160200192915050565b600061016080835262000ad78184018f62000a93565b9050828103602084015262000aed818e62000a93565b604084019c909c5250506001600160a01b039889166060820152968816608088015294871660a08701529290951660c085015260e0840152610100830193909352610120820192909252610140015292915050565b6020808252818101527f4f776e61626c653a2063616c6c6572206973206e6f7420746865206f776e6572604082015260600190565b604051601f8201601f1916810167ffffffffffffffff8111828210171562000ba35762000ba362000c58565b604052919050565b600067ffffffffffffffff82111562000bc85762000bc862000c58565b50601f01601f191660200190565b6000821982111562000bec5762000bec62000c42565b500190565b60005b8381101562000c0e57818101518382015260200162000bf4565b8381111562000c1e576000848401525b50505050565b600060001982141562000c3b5762000c3b62000c42565b5060010190565b634e487b7160e01b600052601160045260246000fd5b634e487b7160e01b600052604160045260246000fd5b80151581146200084857600080fdfe60806040526001602a553480156200001657600080fd5b5060405162002b4d38038062002b4d8339810160408190526200003991620002a6565b600080546001600160a01b038089166001600160a01b03199283161790925560068b905560018054928b16929091169190911790556200007b600a8a620003b6565b602355600280546001600160a01b03808a166001600160a01b03199283161790925560038054928816929091169190911790558a51620000c39060049060208e019062000130565b508951620000d99060059060208d019062000130565b5042620000e7828262000391565b6007819055620000f990859062000391565b60088190556200010b90849062000391565b6009556200011a858262000391565b600a55506200042a9a5050505050505050505050565b8280546200013e90620003d7565b90600052602060002090601f016020900481019282620001625760008555620001ad565b82601f106200017d57805160ff1916838001178555620001ad565b82800160010185558215620001ad579182015b82811115620001ad57825182559160200191906001019062000190565b50620001bb929150620001bf565b5090565b5b80821115620001bb5760008155600101620001c0565b80516001600160a01b0381168114620001ee57600080fd5b919050565b600082601f83011262000204578081fd5b81516001600160401b038082111562000221576200022162000414565b604051601f8301601f19908116603f011681019082821181831017156200024c576200024c62000414565b8160405283815260209250868385880101111562000268578485fd5b8491505b838210156200028b57858201830151818301840152908201906200026c565b838211156200029c57848385830101525b9695505050505050565b60008060008060008060008060008060006101608c8e031215620002c8578687fd5b8b516001600160401b03811115620002de578788fd5b620002ec8e828f01620001f3565b60208e0151909c5090506001600160401b038111156200030a578788fd5b620003188e828f01620001f3565b9a505060408c015198506200033060608d01620001d6565b97506200034060808d01620001d6565b96506200035060a08d01620001d6565b95506200036060c08d01620001d6565b945060e08c015193506101008c015192506101208c015191506101408c015190509295989b509295989b9093969950565b60008219821115620003b157634e487b7160e01b81526011600452602481fd5b500190565b600082620003d257634e487b7160e01b81526012600452602481fd5b500490565b600181811c90821680620003ec57607f821691505b602082108114156200040e57634e487b7160e01b600052602260045260246000fd5b50919050565b634e487b7160e01b600052604160045260246000fd5b612713806200043a6000396000f3fe608060405234801561001057600080fd5b506004361061018e5760003560e01c80635cd68d8b116100de578063c89f2ce411610097578063d504887c11610071578063d504887c14610328578063ead851ea14610331578063f3466dfa14610339578063fe94130f1461034157600080fd5b8063c89f2ce4146102ec578063cb300137146102f5578063cf0b2270146102fd57600080fd5b80635cd68d8b146102645780637429eee114610281578063886354411461028e578063a9e732bb146102a1578063ad73349e146102b4578063b278fa4b146102d757600080fd5b806347ba59c91161014b5780635013a158116101255780635013a1581461022d578063532eaca0146102355780635353a2d81461023e5780635a0473641461025157600080fd5b806347ba59c9146101fd5780634c524be4146102125780634c9916571461022557600080fd5b806312498a701461019357806317d7de7c146101af57806320196065146101c45780633c18b298146101cc5780633d702099146101e1578063461f839b146101f4575b600080fd5b61019c600a5481565b6040519081526020015b60405180910390f35b6101b7610349565b6040516101a69190612587565b6101b76103db565b6101d4610469565b6040516101a69190612543565b61019c6101ef366004612152565b6104c0565b61019c60095481565b61021061020b366004611fe7565b6104d7565b005b610210610220366004612152565b610895565b610210610af6565b61019c610f30565b61019c60075481565b61021061024c3660046120a8565b610fb1565b61021061025f366004612152565b61102f565b600b546102719060ff1681565b60405190151581526020016101a6565b6028546102719060ff1681565b61019c61029c366004612152565b611753565b6102106102af366004612152565b611763565b61019c6102c2366004612152565b60296020526000908152604090206003015481565b6102df611c66565b6040516101a69190612511565b61019c60065481565b610210611c9d565b600054610310906001600160a01b031681565b6040516001600160a01b0390911681526020016101a6565b61019c60085481565b6101d4611e55565b6101b7611eab565b6102df611eb8565b6060600480546103589061265b565b80601f01602080910402602001604051908101604052809291908181526020018280546103849061265b565b80156103d15780601f106103a6576101008083540402835291602001916103d1565b820191906000526020600020905b8154815290600101906020018083116103b457829003601f168201915b5050505050905090565b600580546103e89061265b565b80601f01602080910402602001604051908101604052809291908181526020018280546104149061265b565b80156104615780601f1061043657610100808354040283529160200191610461565b820191906000526020600020905b81548152906001019060200180831161044457829003601f168201915b505050505081565b606060218054806020026020016040519081016040528092919081815260200182805480156103d157602002820191906000526020600020905b8154815260200190600101908083116104a3575050505050905090565b601681600a81106104d057600080fd5b0154905081565b60285460ff1661052e5760405162461bcd60e51b815260206004820152601c60248201527f506f6f6c206973206e6f74206261636b65642062792066756e6473210000000060448201526064015b60405180910390fd5b600754421061059c5760405162461bcd60e51b815260206004820152603460248201527f43616e206e6f7420616464207375626d697373696f6e7320647572696e6720746044820152731a194819985b881d9bdd1a5b99c81c195c9a5bd960621b6064820152608401610525565b6001546023546040516323b872dd60e01b81526001600160a01b03909216916323b872dd916105d19133913091600401612208565b602060405180830381600087803b1580156105eb57600080fd5b505af11580156105ff573d6000803e3d6000fd5b505050506040513d601f19601f820116820180604052508101906106239190612069565b61068c5760405162461bcd60e51b815260206004820152603460248201527f7472616e6466657246726f6d206661696c65642c207375626d697373696f6e206044820152736e6f74206261636b65642062792066756e64732160601b6064820152608401610525565b60005b6003811015610782576002546001600160a01b03166323b872dd33308585600381106106cb57634e487b7160e01b600052603260045260246000fd5b60200201516040518463ffffffff1660e01b81526004016106ee93929190612208565b600060405180830381600087803b15801561070857600080fd5b505af115801561071c573d6000803e3d6000fd5b5050602a5460009081526029602052604090209150839050826003811061075357634e487b7160e01b600052603260045260246000fd5b60209081029190910151825460018101845560009384529190922001558061077a81612696565b91505061068f565b5060408051808201825233808252602354602080840191909152602a8054600090815260298084528682209482526001909401835285812081905590548152919052918220600301805491926107d783612696565b9091555050602a8054600090815260296020908152604080832060029081018054600180820183559186529484902087519590920290910180546001600160a01b0319166001600160a01b03909516949094178455918501519290910191909155905490517f1eea0a51d9cf75dc1d5f774f2cf03c56178907ab0f73a5f32188a67965476c2991610874913091600491600591903390899061243b565b60405180910390a1602a805490600061088c83612696565b91905055505050565b6000546001600160a01b031633146108bf5760405162461bcd60e51b8152600401610525906125da565b60245460ff16156109125760405162461bcd60e51b815260206004820152601860248201527f416c72656164792073656c65637465642077696e6e65722100000000000000006044820152606401610525565b600a5442116109805760405162461bcd60e51b815260206004820152603460248201527f43616e206f6e6c792063686f6f736520612077696e6e6572206166746572207460448201527368652063616d706169676e206973206f7665722160601b6064820152608401610525565b60265460ff166109de5760405162461bcd60e51b8152602060048201526024808201527f596f75206861766520746f2063616c6c20636865636b466f72546965732066696044820152637273742160e01b6064820152608401610525565b6024805460ff191660011790556000805b602754811015610a475760208181548110610a1a57634e487b7160e01b600052603260045260246000fd5b9060005260206000200154831415610a355760019150610a47565b80610a3f81612696565b9150506109ef565b5080610aad5760405162461bcd60e51b815260206004820152602f60248201527f596f75206d7573742073656c65637420612077696e6e65722066726f6d20746860448201526e6520746f702074656e206c6973742160881b6064820152608401610525565b60228290556040517fa7999556898ead0908e069fec8390ec5e1d3efef5b61f1bd12d3790919de0ce690610aea90309060049060059087906123a4565b60405180910390a15050565b6000546001600160a01b03163314610b205760405162461bcd60e51b8152600401610525906125da565b6008544211610b895760405162461bcd60e51b815260206004820152602f60248201527f43616e6e6f742073656c65637420746f702074656e20756e74696c2066616e2060448201526e766f74696e67206973206f7665722160881b6064820152608401610525565b600a544210610bda5760405162461bcd60e51b815260206004820152601860248201527f4465636973696f6e20706572696f64206973206f7665722100000000000000006044820152606401610525565b60265460ff1615610c2d5760405162461bcd60e51b815260206004820152601860248201527f416c726561647920636865636b656420666f72207469657300000000000000006044820152606401610525565b6016546000805b600a811015610d28576020600c82600a8110610c6057634e487b7160e01b600052603260045260246000fd5b0154815460018101835560009283526020909220909101556021601682600a8110610c9b57634e487b7160e01b600052603260045260246000fd5b0154815460018101835560009283526020832001556027805491610cbe83612696565b919050555082601682600a8110610ce557634e487b7160e01b600052603260045260246000fd5b01541015610d1657601681600a8110610d0e57634e487b7160e01b600052603260045260246000fd5b015492508091505b80610d2081612696565b915050610c34565b5060008060015b602a54811015610e5e57602354600082815260296020526040902060030154610d5a90600190612644565b610d649190612625565b925082851415610e4c576000915060005b600a811015610dcc578160208281548110610da057634e487b7160e01b600052603260045260246000fd5b90600052602060002001541415610dba5760019250610dcc565b80610dc481612696565b915050610d75565b5081610e4c576020805460018181019092557fc97bfaf2f8ee708c303a06d134f5ecd8389ae0432af62dc132a24118292866bb0182905560218054918201815560009081527f3a6357012c1a3ae0a17d304c9920310382d968ebcc4b1771f41c6b304205b5709091018490556027805491610e4683612696565b91905055505b80610e5681612696565b915050610d2f565b506026805460ff19166001179055600354604051632cdc85e960e21b81524260048201526001600160a01b039091169063b37217a490602401602060405180830381600087803b158015610eb157600080fd5b505af1158015610ec5573d6000803e3d6000fd5b505050506040513d601f19601f82011682018060405250810190610ee99190612090565b507fa229e1a2e4bf949baa1d82e8fca5b25ec618edecf7436638297ca0a95d00b6e730600460056020604051610f2294939291906122dd565b60405180910390a150505050565b6001546040516370a0823160e01b81523060048201526000916001600160a01b0316906370a082319060240160206040518083038186803b158015610f7457600080fd5b505afa158015610f88573d6000803e3d6000fd5b505050506040513d601f19601f82011682018060405250810190610fac9190612090565b905090565b6000546001600160a01b03163314610fdb5760405162461bcd60e51b8152600401610525906125da565b8051610fee906004906020840190611eef565b507f10a72d577a7c86348648b396152846654c0c3314dc10dc5a28142275bfb55e0330600460056040516110249392919061222c565b60405180910390a150565b6000546001600160a01b03163314156110945760405162461bcd60e51b815260206004820152602160248201527f4f6e6c792046616e732063616e2063616c6c20746869732066756e6374696f6e6044820152602160f81b6064820152608401610525565b60285460ff166110e65760405162461bcd60e51b815260206004820152601c60248201527f506f6f6c206973206e6f74206261636b65642062792066756e647321000000006044820152606401610525565b6000818152602960205260408120600201805490919061111657634e487b7160e01b600052603260045260246000fd5b60009182526020909120600290910201546001600160a01b03163314156111955760405162461bcd60e51b815260206004820152602d60248201527f4172746973742063616e206e6f7420766f746520666f72207468656972206f7760448201526c6e207375626d697373696f6e2160981b6064820152608401610525565b6007544210156112055760405162461bcd60e51b815260206004820152603560248201527f43616e206e6f7420737461727420766f74696e6720756e74696c207375626d696044820152747373696f6e20706572696f64206973206f7665722160581b6064820152608401610525565b6009544211156112575760405162461bcd60e51b815260206004820152601a60248201527f46616e20566f74696e6720506572696f64206973204f766572210000000000006044820152606401610525565b60008181526029602052604081208054829061128357634e487b7160e01b600052603260045260246000fd5b9060005260206000200154116112e95760405162461bcd60e51b815260206004820152602560248201527f546865726520617265206e6f204e46547320696e2074686973207375626d697360448201526473696f6e2160d81b6064820152608401610525565b6001546023546040516323b872dd60e01b81526001600160a01b03909216916323b872dd9161131e9133913091600401612208565b602060405180830381600087803b15801561133857600080fd5b505af115801561134c573d6000803e3d6000fd5b505050506040513d601f19601f820116820180604052508101906113709190612069565b6113d35760405162461bcd60e51b815260206004820152602e60248201527f7472616e6466657246726f6d206661696c65642c20766f7465206e6f7420626160448201526d636b65642062792066756e64732160901b6064820152608401610525565b60015b6000828152602960205260409020600301548110156114af57600082815260296020526040902060020180548290811061142057634e487b7160e01b600052603260045260246000fd5b60009182526020909120600290910201546001600160a01b031633141561149d5760405162461bcd60e51b815260206004820152602b60248201527f557365722068617320616c726561647920766f74656420666f7220746869732060448201526a7375626d697373696f6e2160a81b6064820152608401610525565b806114a781612696565b9150506113d6565b506040805180820182523381526023546020808301918252600085815260298252938420600280820180546001808201835591885293872086519490920290910180546001600160a01b0319166001600160a01b03909416939093178355925191909201558383526003018054919261152783612696565b909155505060235460008381526029602052604081206003015490919061155090600190612644565b61155a9190612625565b6016549091506000805b600a8110156115d25782601682600a811061158f57634e487b7160e01b600052603260045260246000fd5b015410156115c057601681600a81106115b857634e487b7160e01b600052603260045260246000fd5b015492508091505b806115ca81612696565b915050611564565b506000805b600a8110156116495786600c82600a811061160257634e487b7160e01b600052603260045260246000fd5b01541415611637576001915084601682600a811061163057634e487b7160e01b600052603260045260246000fd5b0155611649565b8061164181612696565b9150506115d7565b50801580156116795750601682600a811061167457634e487b7160e01b600052603260045260246000fd5b015484115b156117085783601683600a81106116a057634e487b7160e01b600052603260045260246000fd5b015585600c83600a81106116c457634e487b7160e01b600052603260045260246000fd5b01556040517f29cddc1bc547ec52a5d235ce59b1486ca88ca0628749716343e7ec2fe9eb46f8906116ff903090600490600590600c9061226c565b60405180910390a15b7fa279f508257ac833a0fb3550fc0ef0623bc2e0977e3d1791cd53273343bab3bf3060046005893389604051611743969594939291906124bf565b60405180910390a1505050505050565b600c81600a81106104d057600080fd5b600a5442116117c45760405162461bcd60e51b815260206004820152602760248201527f43616e206e6f7420636173686f757420756e74696c2063616d706169676e206960448201526673206f7665722160c81b6064820152608401610525565b6000546001600160a01b03163314156118355760405162461bcd60e51b815260206004820152602d60248201527f506f6f6c204f776e6572206d75737420636173686f757420766961207365747460448201526c1b1a5b99c818dbdb9d1c9858dd609a1b6064820152608401610525565b806118825760405162461bcd60e51b815260206004820152601c60248201527f5468657265206973206e6f207a65726f207375626d697373696f6e21000000006044820152606401610525565b60008060005b6000848152602960205260409020600301548110156119135760008481526029602052604090206002018054339190839081106118d557634e487b7160e01b600052603260045260246000fd5b60009182526020909120600290910201546001600160a01b031614156119015760019250809150611913565b8061190b81612696565b915050611888565b50600083815260296020526040812060020180548390811061194557634e487b7160e01b600052603260045260246000fd5b9060005260206000209060020201600101549050600060296000868152602001908152602001600020600201838154811061199057634e487b7160e01b600052603260045260246000fd5b9060005260206000209060020201600101819055508280156119b0575081155b15611b485760015460405163a9059cbb60e01b8152336004820152602481018390526001600160a01b039091169063a9059cbb90604401602060405180830381600087803b158015611a0157600080fd5b505af1158015611a15573d6000803e3d6000fd5b505050506040513d601f19601f82011682018060405250810190611a399190612069565b611a4257600080fd5b6022548414611b435760005b6003811015611b0d57600254600086815260296020526040902080546001600160a01b03909216916323b872dd91309133919086908110611a9f57634e487b7160e01b600052603260045260246000fd5b90600052602060002001546040518463ffffffff1660e01b8152600401611ac893929190612208565b600060405180830381600087803b158015611ae257600080fd5b505af1158015611af6573d6000803e3d6000fd5b505050508080611b0590612696565b915050611a4e565b5060408051606081018252600080825260208083018290528284018290528782526029905291909120611b41916003611f73565b505b611c2d565b8215611bdb5760015460405163a9059cbb60e01b8152336004820152602481018390526001600160a01b039091169063a9059cbb90604401602060405180830381600087803b158015611b9a57600080fd5b505af1158015611bae573d6000803e3d6000fd5b505050506040513d601f19601f82011682018060405250810190611bd29190612069565b611b4357600080fd5b60405162461bcd60e51b815260206004820152602160248201527f5573657220776173206e6f7420666f756e6420696e207375626d697373696f6e6044820152602160f81b6064820152608401610525565b7ff2cb6e8ad7120180a3b9e171738081a6cb4c9b56aed5fbb35687f9d3cea142d730600460058733604051610f229594939291906123ec565b611c6e611fb3565b60408051610140810191829052600c805482529091600a90600d602085018083116104a3575050505050905090565b6000546001600160a01b03163314611cc75760405162461bcd60e51b8152600401610525906125da565b60285460ff1615611d1a5760405162461bcd60e51b815260206004820152601d60248201527f506f6f6c20616c7265616479206261636b65642062792066756e6473210000006044820152606401610525565b6001546006546040516323b872dd60e01b81526001600160a01b03909216916323b872dd91611d4f9133913091600401612208565b602060405180830381600087803b158015611d6957600080fd5b505af1158015611d7d573d6000803e3d6000fd5b505050506040513d601f19601f82011682018060405250810190611da19190612069565b611e045760405162461bcd60e51b815260206004820152602e60248201527f7472616e6466657246726f6d206661696c65642c20706f6f6c206e6f7420626160448201526d636b65642062792066756e64732160901b6064820152608401610525565b6028805460ff191660019081179091556040517f0b8bbd80daf66bbd8f47f16497629c353fe2619570ea082faea56cb9391fb42291611e4b9130916004916005919061235a565b60405180910390a1565b606060208054806020026020016040519081016040528092919081815260200182805480156103d157602002820191906000526020600020908154815260200190600101908083116104a3575050505050905090565b600480546103e89061265b565b611ec0611fb3565b604080516101408101918290526016805482529091600a906017602085018083116104a3575050505050905090565b828054611efb9061265b565b90600052602060002090601f016020900481019282611f1d5760008555611f63565b82601f10611f3657805160ff1916838001178555611f63565b82800160010185558215611f63579182015b82811115611f63578251825591602001919060010190611f48565b50611f6f929150611fd2565b5090565b828054828255906000526020600020908101928215611f63579160200282015b82811115611f63578251829060ff16905591602001919060010190611f93565b604051806101400160405280600a906020820280368337509192915050565b5b80821115611f6f5760008155600101611fd3565b600060608284031215611ff8578081fd5b82601f830112612006578081fd5b6040516060810181811067ffffffffffffffff82111715612029576120296126c7565b60405280836060810186101561203d578384fd5b835b600381101561205e57813583526020928301929091019060010161203f565b509195945050505050565b60006020828403121561207a578081fd5b81518015158114612089578182fd5b9392505050565b6000602082840312156120a1578081fd5b5051919050565b6000602082840312156120b9578081fd5b813567ffffffffffffffff808211156120d0578283fd5b818401915084601f8301126120e3578283fd5b8135818111156120f5576120f56126c7565b604051601f8201601f19908116603f0116810190838211818310171561211d5761211d6126c7565b81604052828152876020848701011115612135578586fd5b826020860160208301379182016020019490945295945050505050565b600060208284031215612163578081fd5b5035919050565b8054600090600181811c908083168061218457607f831692505b60208084108214156121a457634e487b7160e01b86526022600452602486fd5b838852602088018280156121bf57600181146121d0576121fb565b60ff198716825282820197506121fb565b60008981526020902060005b878110156121f5578154848201529086019084016121dc565b83019850505b5050505050505092915050565b6001600160a01b039384168152919092166020820152604081019190915260600190565b6001600160a01b03841681526060602082018190526000906122509083018561216a565b8281036040840152612262818561216a565b9695505050505050565b6001600160a01b03851681526101a06020808301829052600091906122938483018861216a565b915083820360408501526122a7828761216a565b92506060840191508460005b600a8110156122d0578154845292820192600191820191016122b3565b5050505095945050505050565b6001600160a01b0385168152608060208083018290526000916123029084018761216a565b8381036040850152612314818761216a565b84810360608601528554808252868552838520925090830190845b8181101561234b5783548352600193840193928501920161232f565b50909998505050505050505050565b6001600160a01b038516815260806020820181905260009061237e9083018661216a565b8281036040840152612390818661216a565b915050821515606083015295945050505050565b6001600160a01b03851681526080602082018190526000906123c89083018661216a565b82810360408401526123da818661216a565b91505082606083015295945050505050565b600060018060a01b03808816835260a0602084015261240e60a084018861216a565b8381036040850152612420818861216a565b60608501969096525092909216608090910152509392505050565b6001600160a01b0387811682526101006020808401829052600092906124638584018b61216a565b92508483036040860152612477838a61216a565b9350876060860152818716608086015260a08501925085915060005b60038110156124b057825184529281019291810191600101612493565b50505050979650505050505050565b600060018060a01b03808916835260c060208401526124e160c084018961216a565b83810360408501526124f3818961216a565b60608501979097525093909316608082015260a00152509392505050565b6101408101818360005b600a81101561253a57815183526020928301929091019060010161251b565b50505092915050565b6020808252825182820181905260009190848201906040850190845b8181101561257b5783518352928401929184019160010161255f565b50909695505050505050565b6000602080835283518082850152825b818110156125b357858101830151858201604001528201612597565b818111156125c45783604083870101525b50601f01601f1916929092016040019392505050565b6020808252602b908201527f4f6e6c792074686520506f6f6c204f776e65722063616e2063616c6c2074686960408201526a732066756e6374696f6e2160a81b606082015260800190565b600081600019048311821515161561263f5761263f6126b1565b500290565b600082821015612656576126566126b1565b500390565b600181811c9082168061266f57607f821691505b6020821081141561269057634e487b7160e01b600052602260045260246000fd5b50919050565b60006000198214156126aa576126aa6126b1565b5060010190565b634e487b7160e01b600052601160045260246000fd5b634e487b7160e01b600052604160045260246000fdfea2646970667358221220a356ed9cb9ddbf3d96e282f8787c1491992bd81935b918dcf881a88fde104f3364736f6c63430008040033a2646970667358221220b49f251964b84ad3064eb5c6c70b730c1eed084770fbc7ebec9b8890131666e564736f6c63430008040033",
  "devdoc": {
    "events": {
      "PoolCreated(address,address,uint256,uint256,uint256,uint256,uint256)": {
        "details": "emitted when a pool is created",
        "params": {
          "BrandVotingEndTime": "unix timestamp for when the brand voting period is over",
          "CampaignEndtime": "unix timestamp for when the campaign is over",
          "FanVotingEndTime": "unix timestamp for when the fan voting period is over",
          "Pool": "the address of the pool",
          "PoolId": "the id this pool is stored under in poolList*",
          "PoolOwner": "the address of the pool owner",
          "SubmissionEndTime": "unix timestamp for when the submission period is over"
        }
      }
    },
    "kind": "dev",
    "methods": {
      "createPool(string,uint256,address,address,uint256,uint256,uint256,uint256)": {
        "details": "Allows caller to create a custom brand pool, as long as they are verified, and have approved the contract to spend 0.1 Link  TODO add require checks to make sure inputs are logical*"
      },
      "owner()": {
        "details": "Returns the address of the current owner."
      },
      "renounceOwnership()": {
        "details": "Leaves the contract without owner. It will not be possible to call `onlyOwner` functions anymore. Can only be called by the current owner. NOTE: Renouncing ownership will leave the contract without an owner, thereby removing any functionality that is only available to the owner."
      },
      "transferOwnership(address)": {
        "details": "Transfers ownership of the contract to a new account (`newOwner`). Can only be called by the current owner."
      }
    },
    "version": 1
  },
  "userdoc": {
    "kind": "user",
    "methods": {},
    "version": 1
  },
  "storageLayout": {
    "storage": [
      {
        "astId": 591,
        "contract": "contracts/PoolFactory.sol:PoolFactory",
        "label": "_owner",
        "offset": 0,
        "slot": "0",
        "type": "t_address"
      },
      {
        "astId": 6080,
        "contract": "contracts/PoolFactory.sol:PoolFactory",
        "label": "allowPoolCreation",
        "offset": 20,
        "slot": "0",
        "type": "t_bool"
      },
      {
        "astId": 6084,
        "contract": "contracts/PoolFactory.sol:PoolFactory",
        "label": "poolList",
        "offset": 0,
        "slot": "1",
        "type": "t_mapping(t_uint256,t_address)"
      },
      {
        "astId": 6086,
        "contract": "contracts/PoolFactory.sol:PoolFactory",
        "label": "poolCount",
        "offset": 0,
        "slot": "2",
        "type": "t_uint256"
      },
      {
        "astId": 6088,
        "contract": "contracts/PoolFactory.sol:PoolFactory",
        "label": "TWITTER_VERIFY_ADDRESS",
        "offset": 0,
        "slot": "3",
        "type": "t_address"
      },
      {
        "astId": 6091,
        "contract": "contracts/PoolFactory.sol:PoolFactory",
        "label": "twitterVerify",
        "offset": 0,
        "slot": "4",
        "type": "t_contract(iTwitterVerify)6058"
      },
      {
        "astId": 6094,
        "contract": "contracts/PoolFactory.sol:PoolFactory",
        "label": "rng",
        "offset": 0,
        "slot": "5",
        "type": "t_contract(iRNG)6076"
      },
      {
        "astId": 6097,
        "contract": "contracts/PoolFactory.sol:PoolFactory",
        "label": "link",
        "offset": 0,
        "slot": "6",
        "type": "t_contract(linkToken)6070"
      },
      {
        "astId": 6099,
        "contract": "contracts/PoolFactory.sol:PoolFactory",
        "label": "LINK_CONTRACT_ADDRESS",
        "offset": 0,
        "slot": "7",
        "type": "t_address"
      }
    ],
    "types": {
      "t_address": {
        "encoding": "inplace",
        "label": "address",
        "numberOfBytes": "20"
      },
      "t_bool": {
        "encoding": "inplace",
        "label": "bool",
        "numberOfBytes": "1"
      },
      "t_contract(iRNG)6076": {
        "encoding": "inplace",
        "label": "contract iRNG",
        "numberOfBytes": "20"
      },
      "t_contract(iTwitterVerify)6058": {
        "encoding": "inplace",
        "label": "contract iTwitterVerify",
        "numberOfBytes": "20"
      },
      "t_contract(linkToken)6070": {
        "encoding": "inplace",
        "label": "contract linkToken",
        "numberOfBytes": "20"
      },
      "t_mapping(t_uint256,t_address)": {
        "encoding": "mapping",
        "key": "t_uint256",
        "label": "mapping(uint256 => address)",
        "numberOfBytes": "32",
        "value": "t_address"
      },
      "t_uint256": {
        "encoding": "inplace",
        "label": "uint256",
        "numberOfBytes": "32"
      }
    }
  }
}