{
  "_format": "hh-sol-artifact-1",
  "contractName": "ERC20Transfer",
  "sourceName": "contracts/Contract.sol",
  "abi": [
    {
      "inputs": [],
      "stateMutability": "nonpayable",
      "type": "constructor"
    },
    {
      "anonymous": false,
      "inputs": [
        {
          "indexed": true,
          "internalType": "address",
          "name": "sender",
          "type": "address"
        },
        {
          "indexed": true,
          "internalType": "address",
          "name": "receiver",
          "type": "address"
        },
        {
          "indexed": false,
          "internalType": "uint256",
          "name": "amount",
          "type": "uint256"
        },
        {
          "indexed": false,
          "internalType": "string",
          "name": "message",
          "type": "string"
        }
      ],
      "name": "TransactionCompleted",
      "type": "event"
    },
    {
      "inputs": [
        {
          "internalType": "address",
          "name": "_token",
          "type": "address"
        }
      ],
      "name": "addVerifiedToken",
      "outputs": [],
      "stateMutability": "nonpayable",
      "type": "function"
    },
    {
      "inputs": [],
      "name": "getVerifiedTokens",
      "outputs": [
        {
          "internalType": "address[]",
          "name": "",
          "type": "address[]"
        }
      ],
      "stateMutability": "view",
      "type": "function"
    },
    {
      "inputs": [],
      "name": "owner",
      "outputs": [
        {
          "internalType": "address",
          "name": "",
          "type": "address"
        }
      ],
      "stateMutability": "view",
      "type": "function"
    },
    {
      "inputs": [
        {
          "internalType": "address",
          "name": "_token",
          "type": "address"
        }
      ],
      "name": "removeVerifiedToken",
      "outputs": [],
      "stateMutability": "nonpayable",
      "type": "function"
    },
    {
      "inputs": [
        {
          "internalType": "contract IERC20Interface",
          "name": "token",
          "type": "address"
        },
        {
          "internalType": "address",
          "name": "to",
          "type": "address"
        },
        {
          "internalType": "uint256",
          "name": "amount",
          "type": "uint256"
        },
        {
          "internalType": "string",
          "name": "message",
          "type": "string"
        }
      ],
      "name": "transfer",
      "outputs": [
        {
          "internalType": "bool",
          "name": "",
          "type": "bool"
        }
      ],
      "stateMutability": "nonpayable",
      "type": "function"
    },
    {
      "inputs": [
        {
          "internalType": "uint256",
          "name": "",
          "type": "uint256"
        }
      ],
      "name": "verifiedTokenList",
      "outputs": [
        {
          "internalType": "address",
          "name": "",
          "type": "address"
        }
      ],
      "stateMutability": "view",
      "type": "function"
    }
  ],
  "bytecode": "0x608060405234801561001057600080fd5b50600080546001600160a01b031916331790556109a4806100326000396000f3fe608060405234801561001057600080fd5b50600436106100625760003560e01c806349cd2f11146100675780635ae67d9a1461007c5780635ef2c2bf1461008f5780638da5cb5b146100ad5780639fca3782146100d8578063d57b2826146100eb575b600080fd5b61007a6100753660046106a3565b61010e565b005b61007a61008a3660046106a3565b6102e8565b610097610376565b6040516100a491906106c7565b60405180910390f35b6000546100c0906001600160a01b031681565b6040516001600160a01b0390911681526020016100a4565b6100c06100e6366004610714565b6103d8565b6100fe6100f9366004610743565b610402565b60405190151581526020016100a4565b6000546001600160a01b031633146101415760405162461bcd60e51b815260040161013890610823565b60405180910390fd5b6001600160a01b03811660009081526001602081905260409091205460ff161515146101bf5760405162461bcd60e51b815260206004820152602760248201527f45524332305472616e736665723a20746f6b656e206973206e6f7420696e20746044820152661a19481b1a5cdd60ca1b6064820152608401610138565b6001600160a01b0381166000908152600160205260408120805460ff191690555b6002548110156102e457816001600160a01b03166002828154811061020757610207610869565b6000918252602090912001546001600160a01b0316036102d2576002805461023190600190610895565b8154811061024157610241610869565b600091825260209091200154600280546001600160a01b03909216918390811061026d5761026d610869565b9060005260206000200160006101000a8154816001600160a01b0302191690836001600160a01b0316021790555060028054806102ac576102ac6108ae565b600082815260209020810160001990810180546001600160a01b03191690550190555050565b806102dc816108c4565b9150506101e0565b5050565b6000546001600160a01b031633146103125760405162461bcd60e51b815260040161013890610823565b6001600160a01b031660008181526001602081905260408220805460ff1916821790556002805491820181559091527f405787fa12a823e0f2b7631cc41b3ba8828b3321ca811111fa75cd3aa3bb5ace0180546001600160a01b0319169091179055565b606060028054806020026020016040519081016040528092919081815260200182805480156103ce57602002820191906000526020600020905b81546001600160a01b031681526001909101906020018083116103b0575b5050505050905090565b600281815481106103e857600080fd5b6000918252602090912001546001600160a01b0316905081565b6001600160a01b0384166000908152600160208190526040822054869160ff90911615151461047f5760405162461bcd60e51b8152602060048201526024808201527f45524332305472616e736665723a20746f6b656e206973206e6f742076657269604482015263199a595960e21b6064820152608401610138565b6040516370a0823160e01b81523360048201526000906001600160a01b038816906370a0823190602401602060405180830381865afa1580156104c6573d6000803e3d6000fd5b505050506040513d601f19601f820116820180604052508101906104ea91906108dd565b9050848110156105485760405162461bcd60e51b815260206004820152602360248201527f45524332305472616e736665723a20696e73756666696369656e742062616c616044820152626e636560e81b6064820152608401610138565b6040516323b872dd60e01b81523360048201526001600160a01b03878116602483015260448201879052600091908916906323b872dd906064016020604051808303816000875af11580156105a1573d6000803e3d6000fd5b505050506040513d601f19601f820116820180604052508101906105c591906108f6565b9050806106145760405162461bcd60e51b815260206004820152601e60248201527f45524332305472616e736665723a207472616e73666572206661696c656400006044820152606401610138565b60408051608081018252338082526001600160a01b038a16602083018190528284018a90526060830189905292519192917fe29d9f5bd369600859c8fe0a6308472913977e5c55efa4c4857e9379ddca7c4c90610674908b908b90610918565b60405180910390a350600198975050505050505050565b6001600160a01b03811681146106a057600080fd5b50565b6000602082840312156106b557600080fd5b81356106c08161068b565b9392505050565b6020808252825182820181905260009190848201906040850190845b818110156107085783516001600160a01b0316835292840192918401916001016106e3565b50909695505050505050565b60006020828403121561072657600080fd5b5035919050565b634e487b7160e01b600052604160045260246000fd5b6000806000806080858703121561075957600080fd5b84356107648161068b565b935060208501356107748161068b565b925060408501359150606085013567ffffffffffffffff8082111561079857600080fd5b818701915087601f8301126107ac57600080fd5b8135818111156107be576107be61072d565b604051601f8201601f19908116603f011681019083821181831017156107e6576107e661072d565b816040528281528a60208487010111156107ff57600080fd5b82602086016020830137600060208483010152809550505050505092959194509250565b60208082526026908201527f45524332305472616e736665723a2063616c6c6572206973206e6f74207468656040820152651037bbb732b960d11b606082015260800190565b634e487b7160e01b600052603260045260246000fd5b634e487b7160e01b600052601160045260246000fd5b818103818111156108a8576108a861087f565b92915050565b634e487b7160e01b600052603160045260246000fd5b6000600182016108d6576108d661087f565b5060010190565b6000602082840312156108ef57600080fd5b5051919050565b60006020828403121561090857600080fd5b815180151581146106c057600080fd5b82815260006020604081840152835180604085015260005b8181101561094c57858101830151858201606001528201610930565b506000606082860101526060601f19601f83011685010192505050939250505056fea2646970667358221220a410d5072a3ea590bc3fca2d46d6eb40501a7ee3cf3c1ac314dd7ab2fd74a40064736f6c63430008110033",
  "linkReferences": {},
  "deployedLinkReferences": {}
}